{"abi":[{"type":"receive","stateMutability":"payable"},{"type":"function","name":"addAllowedAsset","inputs":[{"name":"asset","type":"address","internalType":"address"},{"name":"funder","type":"address","internalType":"address"},{"name":"_feePercentage","type":"uint256","internalType":"uint256"}],"outputs":[],"stateMutability":"nonpayable"},{"type":"function","name":"amountAfterFees","inputs":[{"name":"feePercentage","type":"uint256","internalType":"uint256"},{"name":"amount","type":"uint256","internalType":"uint256"}],"outputs":[{"name":"fee","type":"uint256","internalType":"uint256"},{"name":"amountAfterFee","type":"uint256","internalType":"uint256"}],"stateMutability":"pure"},{"type":"function","name":"assetInfo","inputs":[{"name":"","type":"address","internalType":"address"}],"outputs":[{"name":"feePercentage","type":"uint256","internalType":"uint256"},{"name":"revenuePerAsset","type":"uint256","internalType":"uint256"}],"stateMutability":"view"},{"type":"function","name":"fundContractWithEth","inputs":[],"outputs":[],"stateMutability":"payable"},{"type":"function","name":"getAllowedAssets","inputs":[],"outputs":[{"name":"","type":"address[]","internalType":"address[]"}],"stateMutability":"view"},{"type":"function","name":"getAssetFeePercentage","inputs":[{"name":"asset","type":"address","internalType":"address"}],"outputs":[{"name":"","type":"uint256","internalType":"uint256"}],"stateMutability":"view"},{"type":"function","name":"getAssetInfo","inputs":[{"name":"asset","type":"address","internalType":"address"}],"outputs":[{"name":"","type":"tuple","internalType":"struct IRampContract.AssetInfo","components":[{"name":"feePercentage","type":"uint256","internalType":"uint256"},{"name":"revenuePerAsset","type":"uint256","internalType":"uint256"}]}],"stateMutability":"view"},{"type":"function","name":"getAssetRevenue","inputs":[{"name":"asset","type":"address","internalType":"address"}],"outputs":[{"name":"","type":"uint256","internalType":"uint256"}],"stateMutability":"view"},{"type":"function","name":"initialize","inputs":[{"name":"_controller","type":"address","internalType":"address"},{"name":"_vault","type":"address","internalType":"address payable"}],"outputs":[],"stateMutability":"nonpayable"},{"type":"function","name":"isAssetAllowed","inputs":[{"name":"asset","type":"address","internalType":"address"}],"outputs":[{"name":"","type":"bool","internalType":"bool"}],"stateMutability":"view"},{"type":"function","name":"offRampDeposit","inputs":[{"name":"asset","type":"address","internalType":"address"},{"name":"amount","type":"uint256","internalType":"uint256"},{"name":"sender","type":"address","internalType":"address"},{"name":"medium","type":"uint8","internalType":"enum IRampContract.OnrampMedium"},{"name":"region","type":"uint8","internalType":"enum IRampContract.Region"},{"name":"data","type":"bytes","internalType":"bytes"}],"outputs":[],"stateMutability":"nonpayable"},{"type":"function","name":"offRampNative","inputs":[{"name":"medium","type":"uint8","internalType":"enum IRampContract.OnrampMedium"},{"name":"region","type":"uint8","internalType":"enum IRampContract.Region"},{"name":"data","type":"bytes","internalType":"bytes"}],"outputs":[],"stateMutability":"payable"},{"type":"function","name":"offRampWithPermit","inputs":[{"name":"asset","type":"address","internalType":"address"},{"name":"amount","type":"uint256","internalType":"uint256"},{"name":"sender","type":"address","internalType":"address"},{"name":"permitParams","type":"tuple","internalType":"struct IRampContract.PermitParams","components":[{"name":"deadline","type":"uint256","internalType":"uint256"},{"name":"v","type":"uint8","internalType":"uint8"},{"name":"r","type":"bytes32","internalType":"bytes32"},{"name":"s","type":"bytes32","internalType":"bytes32"}]},{"name":"medium","type":"uint8","internalType":"enum IRampContract.OnrampMedium"},{"name":"region","type":"uint8","internalType":"enum IRampContract.Region"},{"name":"data","type":"bytes","internalType":"bytes"}],"outputs":[],"stateMutability":"nonpayable"},{"type":"function","name":"onRampNative","inputs":[{"name":"receiver","type":"address","internalType":"address payable"},{"name":"amount","type":"uint256","internalType":"uint256"}],"outputs":[],"stateMutability":"nonpayable"},{"type":"function","name":"onRampWithdraw","inputs":[{"name":"asset","type":"address","internalType":"address"},{"name":"amount","type":"uint256","internalType":"uint256"},{"name":"recipient","type":"address","internalType":"address"}],"outputs":[],"stateMutability":"nonpayable"},{"type":"function","name":"owner","inputs":[],"outputs":[{"name":"","type":"address","internalType":"address"}],"stateMutability":"view"},{"type":"function","name":"pause","inputs":[],"outputs":[],"stateMutability":"nonpayable"},{"type":"function","name":"paused","inputs":[],"outputs":[{"name":"","type":"bool","internalType":"bool"}],"stateMutability":"view"},{"type":"function","name":"removeAllowedAsset","inputs":[{"name":"asset","type":"address","internalType":"address"},{"name":"balanceRecipient","type":"address","internalType":"address"}],"outputs":[],"stateMutability":"nonpayable"},{"type":"function","name":"renounceOwnership","inputs":[],"outputs":[],"stateMutability":"nonpayable"},{"type":"function","name":"setNewFeePercentage","inputs":[{"name":"asset","type":"address","internalType":"address"},{"name":"feePercentage","type":"uint256","internalType":"uint256"}],"outputs":[],"stateMutability":"nonpayable"},{"type":"function","name":"setNewVault","inputs":[{"name":"_vault","type":"address","internalType":"address payable"}],"outputs":[],"stateMutability":"nonpayable"},{"type":"function","name":"transferOwnership","inputs":[{"name":"newOwner","type":"address","internalType":"address"}],"outputs":[],"stateMutability":"nonpayable"},{"type":"function","name":"unpause","inputs":[],"outputs":[],"stateMutability":"nonpayable"},{"type":"function","name":"vault","inputs":[],"outputs":[{"name":"","type":"address","internalType":"address payable"}],"stateMutability":"view"},{"type":"function","name":"withdraAssetRevenue","inputs":[{"name":"asset","type":"address","internalType":"address"}],"outputs":[],"stateMutability":"nonpayable"},{"type":"function","name":"withdrawEtherRevenue","inputs":[{"name":"amount","type":"uint256","internalType":"uint256"}],"outputs":[],"stateMutability":"nonpayable"},{"type":"event","name":"AssetAllowedAdded","inputs":[{"name":"asset","type":"address","indexed":true,"internalType":"address"},{"name":"funder","type":"address","indexed":true,"internalType":"address"},{"name":"initialFeePercentage","type":"uint256","indexed":false,"internalType":"uint256"},{"name":"initialBalance","type":"uint256","indexed":false,"internalType":"uint256"}],"anonymous":false},{"type":"event","name":"AssetAllowedRemoved","inputs":[{"name":"asset","type":"address","indexed":true,"internalType":"address"},{"name":"balanceRecipient","type":"address","indexed":true,"internalType":"address"},{"name":"balance","type":"uint256","indexed":false,"internalType":"uint256"}],"anonymous":false},{"type":"event","name":"AssetRevenueWithdrawn","inputs":[{"name":"asset","type":"address","indexed":true,"internalType":"address"},{"name":"amount","type":"uint256","indexed":false,"internalType":"uint256"}],"anonymous":false},{"type":"event","name":"EthReceived","inputs":[{"name":"sender","type":"address","indexed":true,"internalType":"address"},{"name":"amount","type":"uint256","indexed":false,"internalType":"uint256"}],"anonymous":false},{"type":"event","name":"EthWithdrawn","inputs":[{"name":"recipient","type":"address","indexed":true,"internalType":"address"},{"name":"amount","type":"uint256","indexed":false,"internalType":"uint256"}],"anonymous":false},{"type":"event","name":"Initialized","inputs":[{"name":"version","type":"uint64","indexed":false,"internalType":"uint64"}],"anonymous":false},{"type":"event","name":"OwnershipTransferred","inputs":[{"name":"previousOwner","type":"address","indexed":true,"internalType":"address"},{"name":"newOwner","type":"address","indexed":true,"internalType":"address"}],"anonymous":false},{"type":"event","name":"Paused","inputs":[{"name":"account","type":"address","indexed":false,"internalType":"address"}],"anonymous":false},{"type":"event","name":"RampDeposit","inputs":[{"name":"asset","type":"address","indexed":true,"internalType":"address"},{"name":"sender","type":"address","indexed":true,"internalType":"address"},{"name":"amount","type":"uint256","indexed":false,"internalType":"uint256"},{"name":"asset_name","type":"string","indexed":false,"internalType":"string"},{"name":"medium","type":"uint8","indexed":false,"internalType":"enum IRampContract.OnrampMedium"},{"name":"region","type":"uint8","indexed":false,"internalType":"enum IRampContract.Region"},{"name":"data","type":"bytes","indexed":false,"internalType":"bytes"}],"anonymous":false},{"type":"event","name":"RampWithdraw","inputs":[{"name":"asset","type":"address","indexed":true,"internalType":"address"},{"name":"recipient","type":"address","indexed":true,"internalType":"address"},{"name":"amount","type":"uint256","indexed":false,"internalType":"uint256"}],"anonymous":false},{"type":"event","name":"Unpaused","inputs":[{"name":"account","type":"address","indexed":false,"internalType":"address"}],"anonymous":false},{"type":"event","name":"VaultChanged","inputs":[{"name":"oldVault","type":"address","indexed":true,"internalType":"address"},{"name":"newVault","type":"address","indexed":true,"internalType":"address"}],"anonymous":false},{"type":"error","name":"Asset__AlreadyAllowed","inputs":[{"name":"asset","type":"address","internalType":"address"}]},{"type":"error","name":"Asset__InvalidAddress","inputs":[{"name":"asset","type":"address","internalType":"address"}]},{"type":"error","name":"Asset__NotPresent","inputs":[{"name":"asset","type":"address","internalType":"address"}]},{"type":"error","name":"Asset__TransferFailed","inputs":[{"name":"asset","type":"address","internalType":"address"},{"name":"user","type":"address","internalType":"address"}]},{"type":"error","name":"EnforcedPause","inputs":[]},{"type":"error","name":"ExpectedPause","inputs":[]},{"type":"error","name":"InvalidInitialization","inputs":[]},{"type":"error","name":"Invalid__AssetBalance","inputs":[{"name":"asset","type":"address","internalType":"address"},{"name":"user","type":"address","internalType":"address"}]},{"type":"error","name":"Invalid__EthValue","inputs":[{"name":"value","type":"uint256","internalType":"uint256"}]},{"type":"error","name":"Invalid__FeePercentage","inputs":[{"name":"feePercentage","type":"uint256","internalType":"uint256"}]},{"type":"error","name":"Invalid__VaultAddress","inputs":[{"name":"vault","type":"address","internalType":"address"}]},{"type":"error","name":"Math__AdditionError","inputs":[{"name":"a","type":"uint256","internalType":"uint256"},{"name":"b","type":"uint256","internalType":"uint256"}]},{"type":"error","name":"Math__SubtractionError","inputs":[{"name":"a","type":"uint256","internalType":"uint256"},{"name":"b","type":"uint256","internalType":"uint256"}]},{"type":"error","name":"NotInitializing","inputs":[]},{"type":"error","name":"OwnableInvalidOwner","inputs":[{"name":"owner","type":"address","internalType":"address"}]},{"type":"error","name":"OwnableUnauthorizedAccount","inputs":[{"name":"account","type":"address","internalType":"address"}]},{"type":"error","name":"ReentrancyGuardReentrantCall","inputs":[]},{"type":"error","name":"Revenue__WithdrawFailed","inputs":[{"name":"asset","type":"address","internalType":"address"}]}],"bytecode":{"object":"0x60808060405234601557612212908161001a8239f35b5f80fdfe6080806040526004361015610048575b50361561001a575f80fd5b6040513481527f85177f287940f2f05425a4029951af0e047a7f9c4eaa9a6e6917bcd869f8669560203392a2005b5f905f3560e01c9081631793ea0d14611c515750806337214f5014611b385780633f4ba83a14611a7b57806340bbf60d1461198d578063485cc9551461169a57806354147e77146115145780635c975abb146114d3578063679b61c71461120c578063715018a6146111685780637374275014610f845780637713633414610d545780637970ca1d14610d175780638456cb5914610c805780638b0dcb4e14610c3f5780638da5cb5b14610bfa5780639469bf8f14610bbe578063a2c04d4d14610b0b578063afad2e1614610aa0578063b35f4df614610a68578063c81f4d651461072f578063d93cce4e14610441578063e7b77f7014610383578063ec0cee8d14610355578063f066eea01461028d578063f2fde38b14610260578063fbfa77cf146102395763fd6309130361000f573461023657602060031936011261023657600435610195611fde565b80471061020b5781808080846001600160a01b0360035416828215610202575bf1156101f5577f8455ae6be5d92f1df1c3c1484388e247a36c7e60d72055ae216dbc258f257d4b60206001600160a01b036003541692604051908152a280f35b50604051903d90823e3d90fd5b506108fc6101b5565b7f739e9c75000000000000000000000000000000000000000000000000000000008252600452602490fd5b80fd5b503461023657806003193601126102365760206001600160a01b0360035416604051908152f35b50346102365760206003193601126102365761028a61027d611c88565b610285611fde565b611f16565b80f35b503461023657806003193601126102365760405180602060015491828152018091600185527fb10e2d527612073b26eecdfd717e6a320cf44b4afac2b0732d9fcbe2b7fa0cf690855b81811061033657505050826102ec910383611ce6565b604051928392602084019060208552518091526040840192915b818110610314575050500390f35b82516001600160a01b0316845285945060209384019390920191600101610306565b82546001600160a01b03168452602090930192600192830192016102d6565b5034610236576040600319360112610236576040610377602435600435611ec7565b82519182526020820152f35b5034610236576020600319360112610236576001600160a01b036103a5611c88565b6103ad611fde565b168015801561042d575b610402578073ffffffffffffffffffffffffffffffffffffffff196003541617600355807f16e2accad9173abff57b295b56993ec5d86b3cbf791fea02f02a6616463754ea8380a380f35b7f58202732000000000000000000000000000000000000000000000000000000008252600452602490fd5b506001600160a01b036003541681146103b7565b50346102365760606003193601126102365761045b611c88565b610463611c9e565b9060443561046f611fde565b61047761203d565b6001600160a01b03821691821561071c5781158015610712575b6106e6578285528460205260ff604086205416155f146106ba576040517fdd62ed3e0000000000000000000000000000000000000000000000000000000081526001600160a01b0385166004820181905230602483015294909190602083604481885afa928315610677578793610682575b508290816105e0575b50508386528560205260408620600160ff1982541617905560405161053081611cca565b8381526001602082018881528689526002602052604089209251835551910155600154680100000000000000008110156105cc57916105be7f4a792fbcecc1d10580ba0a30f0110671c7ee7cb82bf7496bfebd2968a31e3ad7949261059f856001604097016001556001611dbc565b9091906001600160a01b038084549260031b9316831b921b1916179055565b82519182526020820152a380f35b602487634e487b7160e01b81526041600452fd5b6040516323b872dd60e01b81526001600160a01b0391909116600482015230602482015260448101919091526020816064818a895af1908115610677578791610648575b501561063157815f61050c565b60448686866307f91f0760e01b8352600452602452fd5b61066a915060203d602011610670575b6106628183611ce6565b810190611d6b565b5f610624565b503d610658565b6040513d89823e3d90fd5b9092506020813d6020116106b2575b8161069e60209383611ce6565b810103126106ae5751915f610503565b5f80fd5b3d9150610691565b602485847ff845708c000000000000000000000000000000000000000000000000000000008252600452fd5b602485837f2020bab5000000000000000000000000000000000000000000000000000000008252600452fd5b5060058211610491565b60248584637548155360e11b8252600452fd5b50346106ae576101406003193601126106ae5761074a611c88565b602435610755611cb4565b9160807fffffffffffffffffffffffffffffffffffffffffffffffffffffffffffffff9c3601126106ae57604051916080830183811067ffffffffffffffff821117610a545760405260643583526084359360ff851685036106ae5760208401948552604084019160a4358352606085019160c435835260e4359360038510156106ae57610104359360068510156106ae576101243567ffffffffffffffff81116106ae576108106001600160a01b03913690600401611d25565b9761081961203d565b1697885f525f60205260ff60405f20541615610a415760ff90519951169151905190883b156106ae57604051927fd505accf0000000000000000000000000000000000000000000000000000000084526001600160a01b0385169a8b60048601523060248601528660448601526064850152608484015260a483015260c48201525f8160e481838b5af18015610a3657610a20575b506040516323b872dd60e01b81526001600160a01b03919091166004820152306024820152604481018290526020816064818b8a5af19081156109ca578891610a01575b50156109ea57600190858852600260205261091260408920918254611ec7565b929091019081548082019180831091826109d557505015029055604051937f95d89b410000000000000000000000000000000000000000000000000000000085528785600481895afa9283156109ca577f80cd67d4acd6d220779746aabbc8f35c7a542bd3827492df68558d2a617a8b4f9589946109a2575b5060405194859461099c9486611e87565b0390a380f35b61099c9394506109c3903d808c833e6109bb8183611ce6565b810190611e24565b939261098b565b6040513d8a823e3d90fd5b63012cf33d60e01b8c5260045260245260448afd5b60448787876307f91f0760e01b8352600452602452fd5b610a1a915060203d602011610670576106628183611ce6565b5f6108f2565b610a2d9198505f90611ce6565b5f9660206108ae565b6040513d5f823e3d90fd5b88637548155360e11b5f5260045260245ffd5b634e487b7160e01b5f52604160045260245ffd5b346106ae5760206003193601126106ae576001600160a01b03610a89611c88565b165f526002602052602060405f2054604051908152f35b346106ae5760206003193601126106ae576001600160a01b03610ac1611c88565b5f6020604051610ad081611cca565b8281520152165f5260026020526040805f208151610aed81611cca565b60206001835493848452015491019081528251918252516020820152f35b5f6003193601126106ae57610b1e611fde565b610b2661203d565b610b2e612090565b3415610b92575f808080343082f115610a36576040513481527f85177f287940f2f05425a4029951af0e047a7f9c4eaa9a6e6917bcd869f8669560203392a25f7f9b779b17422d0df92223018b32b4d1fa46e071723d6817e2486d003becc55f005d005b7f739e9c75000000000000000000000000000000000000000000000000000000005f523460045260245ffd5b346106ae5760206003193601126106ae576001600160a01b03610bdf611c88565b165f525f602052602060ff60405f2054166040519015158152f35b346106ae575f6003193601126106ae5760206001600160a01b037f9016d09d72d40fdae2fd8ceac6b6234c7706214fd39c1cd1e609a0528c1993005416604051908152f35b346106ae5760206003193601126106ae576001600160a01b03610c60611c88565b165f5260026020526040805f206001815491015482519182526020820152f35b346106ae575f6003193601126106ae57610c98611fde565b610ca061203d565b600160ff197fcd5ed15c6e187e77e9aee88184c21f4f2182ab5827cb3b7e07fbedcd63f033005416177fcd5ed15c6e187e77e9aee88184c21f4f2182ab5827cb3b7e07fbedcd63f03300557f62e78cea01bee320cd4e420270b5ea74000d11b0c9f74754ebdbfc544b05a2586020604051338152a1005b346106ae5760406003193601126106ae576001600160a01b03610d38611c88565b610d40611fde565b165f52600260205260243560405f20555f80f35b346106ae5760c06003193601126106ae57610d6d611c88565b602435610d78611cb4565b6064359060038210156106ae576084359060068210156106ae5760a43567ffffffffffffffff81116106ae57610dba6001600160a01b03913690600401611d25565b95610dc361203d565b610dcb612090565b1693845f525f60205260ff60405f20541615610f7157845f52600260205260405f20906040516323b872dd60e01b815260208180610e2a853089600485016001600160a01b036040929594938160608401971683521660208201520152565b03815f8b5af1908115610a36575f91610f52575b50610e69575b5f7f9b779b17422d0df92223018b32b4d1fa46e071723d6817e2486d003becc55f005d005b6001610e76828454612104565b92018054808401908482109081610f3b575015029055610e969190611d83565b94604051907f95d89b410000000000000000000000000000000000000000000000000000000082525f82600481895afa938415610a36577f80cd67d4acd6d220779746aabbc8f35c7a542bd3827492df68558d2a617a8b4f956001600160a01b0395610f12945f91610f21575b50604051968796169986611e87565b0390a380808080808080610e44565b610f3591503d805f833e6109bb8183611ce6565b8a610f03565b859063012cf33d60e01b5f5260045260245260445ffd5b610f6b915060203d602011610670576106628183611ce6565b88610e3e565b84637548155360e11b5f5260045260245ffd5b346106ae5760606003193601126106ae57610f9d611c88565b602435906001600160a01b03610fb1611cb4565b91610fba61203d565b610fc2611fde565b1690815f525f60205260ff60405f2054161561115557815f52600260205260405f206020600160405192610ff584611cca565b80548452015491019081526040517f70a08231000000000000000000000000000000000000000000000000000000008152306004820152602081602481875afa8015610a365785915f9161111e575b5061105191925190611d83565b106110ee5760405163a9059cbb60e01b81526001600160a01b0382166004820152602481018490526020816044815f875af1908115610a36575f916110cf575b5061109857005b60206001600160a01b037ff777277ce7f76a326d40752fc9ed609bbdf5078827d5b33ea18109b82d3fd28a926040519586521693a3005b6110e8915060203d602011610670576106628183611ce6565b84611091565b507f19245565000000000000000000000000000000000000000000000000000000005f526004523060245260445ffd5b9150506020813d60201161114d575b8161113a60209383611ce6565b810103126106ae57518490611051611044565b3d915061112d565b50637548155360e11b5f5260045260245ffd5b346106ae575f6003193601126106ae57611180611fde565b5f6001600160a01b037f9016d09d72d40fdae2fd8ceac6b6234c7706214fd39c1cd1e609a0528c1993005473ffffffffffffffffffffffffffffffffffffffff1981167f9016d09d72d40fdae2fd8ceac6b6234c7706214fd39c1cd1e609a0528c19930055167f8be0079c531659141344cd1fd0a4f28419497f9722a3daafe3b4186f6b6457e08280a3005b346106ae5760406003193601126106ae57611225611c88565b6001600160a01b03611235611c9e565b9161123e611fde565b61124661203d565b1680156114c157805f525f60205260ff60405f2054165f146114965760405161126e81611cca565b5f81526001602082015f8152835f52600260205260405f2092518355519101555f5b60015481101561149057816001600160a01b036112ac83611d90565b90549060031b1c16146112c157600101611290565b815f525f60205260405f2060ff198154169055600154905f19820191821161147c5761059f6001600160a01b036112fa61130894611d90565b90549060031b1c1691611d90565b6001548015611468575f190161131d81611d90565b6001600160a01b0382549160031b1b191690556001555b604051917f70a08231000000000000000000000000000000000000000000000000000000008352306004840152602083602481855afa928315610a36575f93611434575b50826113b6575b60206001600160a01b037f5aceb1a6bf6e760364b38230667a5576c93c23a38f31b25c8f3092e8b06ab9a0926040519586521693a3005b60405163a9059cbb60e01b81526001600160a01b0382166004820152602481018490526020816044815f875af1908115610a36575f91611415575b5061137f576001600160a01b03916307f91f0760e01b5f526004521660245260445ffd5b61142e915060203d602011610670576106628183611ce6565b846113f1565b9092506020813d602011611460575b8161145060209383611ce6565b810103126106ae57519183611378565b3d9150611443565b634e487b7160e01b5f52603160045260245ffd5b634e487b7160e01b5f52601160045260245ffd5b50611334565b7fd1b3380c000000000000000000000000000000000000000000000000000000005f5260045260245ffd5b637548155360e11b5f5260045260245ffd5b346106ae575f6003193601126106ae57602060ff7fcd5ed15c6e187e77e9aee88184c21f4f2182ab5827cb3b7e07fbedcd63f0330054166040519015158152f35b60606003193601126106ae5760043560038110156106ae576024359060068210156106ae5760443567ffffffffffffffff81116106ae57611559903690600401611d25565b9161156261203d565b61156a612090565b5f805260026020527fac33ff75c19e70fe83507db0d683fd3465c996598dc972688b7ace676c89077b91346115be575f7f9b779b17422d0df92223018b32b4d1fa46e071723d6817e2486d003becc55f005d005b6001926115cc348254611ec7565b949091019081548082019180831091826116855750505f9593611662937f80cd67d4acd6d220779746aabbc8f35c7a542bd3827492df68558d2a617a8b4f9693611658931502905560405194855260a06020860152600660a08601527f4e4154495645000000000000000000000000000000000000000000000000000060c08601526040850190611dd1565b6060830190611df2565b60e0608082015280611679339560e0830190611dff565b0390a380808080610e44565b63012cf33d60e01b5f5260045260245260445ffd5b346106ae5760406003193601126106ae576116b3611c88565b6116bb611c9e565b907ff0c57e16840df040f15088dc2f81fe391c3923bec73e23a9662efc9c229c6a00549160ff8360401c16159267ffffffffffffffff811680159081611985575b600114908161197b575b159081611972575b5061194a576001600160a01b0392818560017fffffffffffffffffffffffffffffffffffffffffffffffff00000000000000006117879516177ff0c57e16840df040f15088dc2f81fe391c3923bec73e23a9662efc9c229c6a00556118f5575b50611777612185565b61177f612185565b610285612185565b1673ffffffffffffffffffffffffffffffffffffffff1960035416176003555f80525f60205260405f20600160ff1982541617905560015468010000000000000000811015610a54578060016117e292016001556001611dbc565b6001600160a01b0382549160031b1b1916905560405161180181611cca565b600181525f60208083018281529180526002905290517fac33ff75c19e70fe83507db0d683fd3465c996598dc972688b7ace676c89077b55517fac33ff75c19e70fe83507db0d683fd3465c996598dc972688b7ace676c89077c5561186257005b7fffffffffffffffffffffffffffffffffffffffffffffff00ffffffffffffffff7ff0c57e16840df040f15088dc2f81fe391c3923bec73e23a9662efc9c229c6a0054167ff0c57e16840df040f15088dc2f81fe391c3923bec73e23a9662efc9c229c6a00557fc7f505b2f371ae2175ee4913f4499e1f2633a7b5936321eed1cdaeb6115181d2602060405160018152a1005b7fffffffffffffffffffffffffffffffffffffffffffffff0000000000000000001668010000000000000001177ff0c57e16840df040f15088dc2f81fe391c3923bec73e23a9662efc9c229c6a00558561176e565b7ff92ee8a9000000000000000000000000000000000000000000000000000000005f5260045ffd5b9050158561170e565b303b159150611706565b8591506116fc565b346106ae5760406003193601126106ae576119a6611c88565b602435906119b261203d565b6119ba611fde565b5f80526002602052816119ec602060405f206001604051916119db83611cca565b805483520154918291015247611d83565b10611a4b576001600160a01b0316905f81838115611a41575b5f92839283928392f115610a36577ff777277ce7f76a326d40752fc9ed609bbdf5078827d5b33ea18109b82d3fd28a60205f92604051908152a3005b6108fc9250611a05565b7f19245565000000000000000000000000000000000000000000000000000000005f525f6004523060245260445ffd5b346106ae575f6003193601126106ae57611a93611fde565b7fcd5ed15c6e187e77e9aee88184c21f4f2182ab5827cb3b7e07fbedcd63f033005460ff811615611b105760ff19167fcd5ed15c6e187e77e9aee88184c21f4f2182ab5827cb3b7e07fbedcd63f03300557f5db9ee0a495bf2e6ff9c91a7834c1ba4fdd244a5e8aa4e537bd38aeae4b073aa6020604051338152a1005b7f8dfc202b000000000000000000000000000000000000000000000000000000005f5260045ffd5b346106ae5760206003193601126106ae576001600160a01b03611b59611c88565b611b61611fde565b16805f525f60205260ff60405f205416156114c157805f526002602052600160405f2001546001600160a01b03600354166040519063a9059cbb60e01b825260048201528160248201526020816044815f875af1908115610a36575f91611c32575b5015611c065760207f7a7eca5bf9fb97c6005b95eaae1d0d01dff4272c1048e4bafd0f93d5cfd6552a91835f52600282525f6001604082200155604051908152a2005b507f77fc5e14000000000000000000000000000000000000000000000000000000005f5260045260245ffd5b611c4b915060203d602011610670576106628183611ce6565b83611bc3565b346106ae5760206003193601126106ae576020906001600160a01b03611c75611c88565b165f5260028252600160405f2001548152f35b600435906001600160a01b03821682036106ae57565b602435906001600160a01b03821682036106ae57565b604435906001600160a01b03821682036106ae57565b6040810190811067ffffffffffffffff821117610a5457604052565b90601f601f19910116810190811067ffffffffffffffff821117610a5457604052565b67ffffffffffffffff8111610a5457601f01601f191660200190565b81601f820112156106ae57803590611d3c82611d09565b92611d4a6040519485611ce6565b828452602083830101116106ae57815f926020809301838601378301015290565b908160209103126106ae575180151581036106ae5790565b9190820391821161147c57565b600154811015611da85760015f5260205f2001905f90565b634e487b7160e01b5f52603260045260245ffd5b8054821015611da8575f5260205f2001905f90565b906003821015611dde5752565b634e487b7160e01b5f52602160045260245ffd5b906006821015611dde5752565b90601f19601f602080948051918291828752018686015e5f8582860101520116010190565b6020818303126106ae5780519067ffffffffffffffff82116106ae570181601f820112156106ae57805190611e5882611d09565b92611e666040519485611ce6565b828452602083830101116106ae57815f9260208093018386015e8301015290565b9193611658611eac611ec4979596611eb794865260a0602087015260a0860190611dff565b956040850190611dd1565b6080818403910152611dff565b90565b81611ed491939293612104565b808303908382119384611ee8575092150290565b7fc48854a1000000000000000000000000000000000000000000000000000000005f5260045260245260445ffd5b6001600160a01b03168015611fb2576001600160a01b037f9016d09d72d40fdae2fd8ceac6b6234c7706214fd39c1cd1e609a0528c199300548273ffffffffffffffffffffffffffffffffffffffff198216177f9016d09d72d40fdae2fd8ceac6b6234c7706214fd39c1cd1e609a0528c19930055167f8be0079c531659141344cd1fd0a4f28419497f9722a3daafe3b4186f6b6457e05f80a3565b7f1e4fbdf7000000000000000000000000000000000000000000000000000000005f525f60045260245ffd5b6001600160a01b037f9016d09d72d40fdae2fd8ceac6b6234c7706214fd39c1cd1e609a0528c1993005416330361201157565b7f118cdaa7000000000000000000000000000000000000000000000000000000005f523360045260245ffd5b60ff7fcd5ed15c6e187e77e9aee88184c21f4f2182ab5827cb3b7e07fbedcd63f03300541661206857565b7fd93c0665000000000000000000000000000000000000000000000000000000005f5260045ffd5b7f9b779b17422d0df92223018b32b4d1fa46e071723d6817e2486d003becc55f005c6120dc5760017f9b779b17422d0df92223018b32b4d1fa46e071723d6817e2486d003becc55f005d565b7f3ee5aeb5000000000000000000000000000000000000000000000000000000005f5260045ffd5b9091905f905f19848209908481029283808410930392808403931461217957826064111561216757507f5c28f5c28f5c28f5c28f5c28f5c28f5c28f5c28f5c28f5c28f5c28f5c28f5c2993946064910990828211900360fe1b910360021c170290565b634e487b71905260116020526024601cfd5b50505060649192500490565b60ff7ff0c57e16840df040f15088dc2f81fe391c3923bec73e23a9662efc9c229c6a005460401c16156121b457565b7fd7e6bcf8000000000000000000000000000000000000000000000000000000005f5260045ffdfea2646970667358221220d249c16577a0210adba01a4477df6c8f8a603a95d34da2b23665c46699f0795e64736f6c634300081e0033","linkReferences":{}},"methodIdentifiers":{"addAllowedAsset(address,address,uint256)":"d93cce4e","amountAfterFees(uint256,uint256)":"ec0cee8d","assetInfo(address)":"8b0dcb4e","fundContractWithEth()":"a2c04d4d","getAllowedAssets()":"f066eea0","getAssetFeePercentage(address)":"b35f4df6","getAssetInfo(address)":"afad2e16","getAssetRevenue(address)":"1793ea0d","initialize(address,address)":"485cc955","isAssetAllowed(address)":"9469bf8f","offRampDeposit(address,uint256,address,uint8,uint8,bytes)":"77136334","offRampNative(uint8,uint8,bytes)":"54147e77","offRampWithPermit(address,uint256,address,(uint256,uint8,bytes32,bytes32),uint8,uint8,bytes)":"c81f4d65","onRampNative(address,uint256)":"40bbf60d","onRampWithdraw(address,uint256,address)":"73742750","owner()":"8da5cb5b","pause()":"8456cb59","paused()":"5c975abb","removeAllowedAsset(address,address)":"679b61c7","renounceOwnership()":"715018a6","setNewFeePercentage(address,uint256)":"7970ca1d","setNewVault(address)":"e7b77f70","transferOwnership(address)":"f2fde38b","unpause()":"3f4ba83a","vault()":"fbfa77cf","withdraAssetRevenue(address)":"37214f50","withdrawEtherRevenue(uint256)":"fd630913"},"storageLayout":{"storage":[{"astId":50859,"contract":"src/RampContract.sol:RampContract","label":"_allowedAssets","offset":0,"slot":"0","type":"t_mapping(t_address,t_bool)"},{"astId":50862,"contract":"src/RampContract.sol:RampContract","label":"_allowedAssetsList","offset":0,"slot":"1","type":"t_array(t_address)dyn_storage"},{"astId":50867,"contract":"src/RampContract.sol:RampContract","label":"assetInfo","offset":0,"slot":"2","type":"t_mapping(t_address,t_struct(AssetInfo)50597_storage)"},{"astId":50869,"contract":"src/RampContract.sol:RampContract","label":"vault","offset":0,"slot":"3","type":"t_address_payable"}],"types":{"t_address":{"encoding":"inplace","label":"address","numberOfBytes":"20"},"t_address_payable":{"encoding":"inplace","label":"address payable","numberOfBytes":"20"},"t_array(t_address)dyn_storage":{"encoding":"dynamic_array","label":"address[]","numberOfBytes":"32","base":"t_address"},"t_bool":{"encoding":"inplace","label":"bool","numberOfBytes":"1"},"t_mapping(t_address,t_bool)":{"encoding":"mapping","key":"t_address","label":"mapping(address => bool)","numberOfBytes":"32","value":"t_bool"},"t_mapping(t_address,t_struct(AssetInfo)50597_storage)":{"encoding":"mapping","key":"t_address","label":"mapping(address => struct IRampContract.AssetInfo)","numberOfBytes":"32","value":"t_struct(AssetInfo)50597_storage"},"t_struct(AssetInfo)50597_storage":{"encoding":"inplace","label":"struct IRampContract.AssetInfo","numberOfBytes":"64","members":[{"astId":50594,"contract":"src/RampContract.sol:RampContract","label":"feePercentage","offset":0,"slot":"0","type":"t_uint256"},{"astId":50596,"contract":"src/RampContract.sol:RampContract","label":"revenuePerAsset","offset":0,"slot":"1","type":"t_uint256"}]},"t_uint256":{"encoding":"inplace","label":"uint256","numberOfBytes":"32"}}},"id":68}